:100000000C9462000C948A000C948A000C948A0070
:100010000C948A000C948A000C948A000C948A0038
:100020000C948A000C948A000C948A000C948A0028
:100030000C948A000C948A000C948A000C948A0018
:100040000C9481040C948A000C944F040C942904A1
:100050000C948A000C948A000C948A000C948A00F8
:100060000C948A000C948A000000000024002700F1
:100070002A0000000000250028002B0000000008D6
:10008000000201000003040700000000000000005F
:1000900000000000230026002900040404040404D6
:1000A0000404020202020202030303030303010227
:1000B00004081020408001020408102001020408F6
:1000C0001020100511241FBECFEFD8E0DEBFCDBF3A
:1000D00011E0A0E0B1E0E8EDF1E102C005900D9281
:1000E000A034B107D9F721E0A0E4B1E001C01D922E
:1000F000AE3FB207E1F710E0C2E6D0E004C02197BE
:10010000FE010E94E408C136D107C9F70E945A05D2
:100110000C94EA080C940000AF92BF92CF92DF9249
:10012000EF92FF920F931F93CF93DF936C017B01AC
:100130008B01040F151FEB015E01AE18BF08C0173D
:10014000D10759F06991D601ED91FC910190F081B0
:10015000E02DC6010995892B79F7C501DF91CF9173
:100160001F910F91FF90EF90DF90CF90BF90AF90D5
:100170000895FC01538D448D252F30E0842F90E0AD
:10018000821B930B541710F0CF9608950197089592
:10019000FC01918D828D981761F0A28DAE0FBF2F5B
:1001A000B11D5D968C91928D9F5F9F73928F90E0B1
:1001B00008958FEF9FEF0895FC01918D828D981720
:1001C00031F0828DE80FF11D858D90E008958FEF5D
:1001D0009FEF0895FC01918D228D892F90E0805C26
:1001E0009F4F821B91098F739927089589E491E0AD
:1001F0000E94EA0021E0892B09F420E0822F089573
:1002000080E090E0892B29F00E94F60081110C9487
:1002100000000895FC01A48DA80FB92FB11DA35AA9
:10022000BF4F2C91848D90E001968F739927848F16
:10023000A689B7892C93A089B1898C918370806439
:100240008C93938D848D981306C00288F389E02DDA
:1002500080818F7D80830895EF92FF920F931F938B
:10026000CF93DF93EC0181E0888F9B8D8C8D981369
:100270001AC0E889F989808185FF15C09FB7F89475
:10028000EE89FF896083E889F989808183708064C1
:1002900080839FBF81E090E0DF91CF911F910F910C
:1002A000FF90EF900895F62E0B8D10E00F5F1F4F1B
:1002B0000F731127E02E8C8D8E110CC00FB607FC2A
:1002C000FACFE889F989808185FFF5CFCE010E94B8
:1002D0000A01F1CFEB8DEC0FFD2FF11DE35AFF4F1B
:1002E000F0829FB7F8940B8FEA89FB898081806246
:1002F000CFCFCF93DF93EC01888D8823B9F0AA8903
:10030000BB89E889F9898C9185FD03C0808186FDD0
:100310000DC00FB607FCF7CF8C9185FFF2CF80811F
:1003200085FFEDCFCE010E940A01E9CFDF91CF9189
:10033000089590E0FC01E458FF4F2491FC01E25540
:10034000FF4F3491FC01E656FF4FE491EE23C9F0D4
:10035000222339F0233001F1A8F4213019F12230A1
:1003600029F1F0E0EE0FFF1FEE58FF4FA591B49179
:100370008FB7F894EC91611126C030953E233C93E1
:100380008FBF08952730A9F02830C9F0243049F7ED
:10039000809180008F7D03C0809180008F77809353
:1003A0008000DFCF84B58F7784BDDBCF84B58F7DB0
:1003B000FBCF8091B0008F778093B000D2CF809137
:1003C000B0008F7DF9CF3E2BDACFCF93DF9390E053
:1003D000FC01E255FF4F249186569F4FFC0184910A
:1003E0008823D1F090E0880F991FFC01E859FF4F56
:1003F000A591B491FC01EE58FF4FC591D4916111C4
:100400000EC09FB7F8948C91E22FE0958E238C93C9
:100410002881E223E8839FBFDF91CF9108958FB7B2
:10042000F894EC91E22BEC938FBFF6CF3FB7F894A2
:100430008091450190914601A0914701B0914801FA
:1004400026B5A89B05C02F3F19F00196A11DB11D2F
:100450003FBFBA2FA92F982F8827BC01CD01620F6B
:10046000711D811D911D42E0660F771F881F991F26
:100470004A95D1F708958F929F92AF92BF92CF92F3
:10048000DF92EF92FF924B015C010E9416026B011A
:100490007C010E9416026C197D098E099F09683E35
:1004A000734081059105A8F321E0821A9108A10803
:1004B000B10888EEC80E83E0D81EE11CF11C81143F
:1004C0009104A104B10429F7FF90EF90DF90CF9041
:1004D000BF90AF909F908F900895089590E080E036
:1004E0000895CF93DF93EC0160E08E810E94990123
:1004F00061E08E810E94990160E08E810E949901E5
:100500008BE891E00197F1F7DF91CF910895CF92B9
:10051000DF92EF92FF920F931F93CF93DF936C01C3
:100520007C0187E0E80EF11CD0E0C0E0062F10E06F
:10053000B8010C2E02C0759567950A94E2F76170B8
:10054000F70181917F010E9499012196C430D10564
:1005500079F7C601DF91CF911F910F91FF90EF9036
:10056000DF90CF900C947102CF92DF92EF92FF92C6
:100570000F931F93CF93DF93EC01F62E642F8C81A2
:100580000E9499018D818F3F19F060E00E949901CE
:100590000F2D10E08F8584FF25C06E0187E0C80E07
:1005A000D11CF12CE12CB8010E2C02C07595679579
:1005B0000A94E2F76170F60181916F010E9499013E
:1005C000FFEFEF1AFF0A88E0E816F10461F7CE01A9
:1005D000DF91CF911F910F91FF90EF90DF90CF901F
:1005E0000C947102B80184E0759567958A95E1F7DE
:1005F000CE010E9487026F2DCE01DF91CF911F9116
:100600000F91FF90EF90DF90CF900C94870240E025
:10061000682F86EE91E00C94B402CF93DF93823082
:1006200029F49091F50198609093F5018093F90178
:100630001092FA0180E48093FB0180E18093FC0139
:1006400080E58093FD0161E08091EA010E94E5016F
:100650008091EB018F3F19F061E00E94E50161E0BC
:100660008091EC010E94E501C6EED1E09E01265E7C
:1006700031408091F50184FD0BC084E090E021962B
:100680002817390744F461E08E810E94E501EECF1E
:1006900088E090E0F4CF8BE39DE00197F1F760E014
:1006A0008091EA010E94990160E08091EC010E9432
:1006B00099018091EB018F3F19F060E00E94990150
:1006C0008091F50184FD39C063E086EE91E00E94DF
:1006D0008702CBE4D6E4CE010197F1F763E086EE22
:1006E00091E00E9487022197F1F763E086EE91E0A6
:1006F0000E94870283E592E00197F1F762E086EEBF
:1007000091E00E9487028091F50180620E940703B8
:1007100084E08093F6018CE00E94070381E00E9450
:1007200007038BE39FE10197F1F782E08093F701E4
:1007300086E0DF91CF910C94070380620E9407034B
:100740008BE496E40197F1F78091F50180620E94B5
:10075000070383E592E00197F1F78091F50180624C
:100760000E940703D0CF41E00E94B40281E090E0F4
:100770000895FB0101900020E9F73197AF01461B76
:10078000570BDC01ED91FC910280F381E02D09947F
:100790004F925F926F927F928F929F92AF92BF9291
:1007A000EF92FF920F931F93CF93DF93CDB7DEB7F6
:1007B000A1970FB6F894DEBF0FBECDBF8C014A01E2
:1007C0005B01DC01ED91FC910190F081E02D6DE287
:1007D00009957C0122273327A901281939094A09DB
:1007E0005B0919A25E01B1E2AB0EB11C8AE0482E92
:1007F000512C612C712CCA01B901A30192010E94F4
:10080000C208605DF50162935F0121153105410564
:10081000510589F790E080E0309721F0BF01C801D1
:100820000E94B9038E0D9F1DA1960FB6F894DEBFEE
:100830000FBECDBFDF91CF911F910F91FF90EF9031
:10084000BF90AF909F908F907F906F905F904F90F0
:1008500008951F920F920FB60F9211242F933F937A
:100860004F935F936F937F938F939F93AF93BF93B8
:10087000EF93FF9389E491E00E940A01FF91EF91C9
:10088000BF91AF919F918F917F916F915F914F91A8
:100890003F912F910F900FBE0F901F9018951F92B0
:1008A0000F920FB60F9211242F938F939F93EF9374
:1008B000FF93E0915901F0915A018081E0915F012D
:1008C000F091600182FD1BC09081809162018F5F79
:1008D0008F7320916301821741F0E0916201F0E093
:1008E000E75BFE4F958F80936201FF91EF919F919F
:1008F0008F912F910F900FBE0F901F9018958081B0
:10090000F4CF1F920F920FB60F9211242F933F93A3
:100910008F939F93AF93BF93809141019091420138
:10092000A0914301B09144013091400123E0230F95
:100930002D3758F50196A11DB11D209340018093DC
:10094000410190934201A0934301B09344018091EF
:10095000450190914601A0914701B091480101964F
:10096000A11DB11D8093450190934601A0934701BD
:10097000B0934801BF91AF919F918F913F912F917B
:100980000F900FBE0F901F90189526E8230F029628
:10099000A11DB11DD2CFCF92DF92EF92FF920F93A4
:1009A0001F93E82FF92F05C00150110921093109C2
:1009B00061F1908196239417B9F305C00150110994
:1009C0002109310911F1908196239413F7CFC12C9D
:1009D000D12CE12CF12C0AC08FEFC81AD80AE80AF2
:1009E000F80A0C151D052E053F0579F08081862338
:1009F000841791F36C2D7D2D8E2D9F2D1F910F91BE
:100A0000FF90EF90DF90CF90089560E070E080E07D
:100A100090E01F910F91FF90EF90DF90CF9008959D
:100A2000E9E4F1E01382128288EE93E0A0E0B0E006
:100A300084839583A683B78384E091E09183808348
:100A400085EC90E09587848784EC90E09787868793
:100A500080EC90E0918B808B81EC90E0938B828B8B
:100A600082EC90E0958B848B86EC90E0978B868B64
:100A7000118E128E138E148EE6EEF1E01382128226
:100A800086E191E09183808387E084838FEF858383
:100A900086E0868385E0878384E0808783E08187A2
:100AA00082E082871386148615861686178681E073
:100AB0000C940D03CF93DF93CDB7DEB7A1970FB69C
:100AC000F894DEBF0FBECDBF789484B5826084BD3C
:100AD00084B5816084BD85B5826085BD85B5816042
:100AE00085BD80916E00816080936E0010928100C0
:100AF000809181008260809381008091810081607B
:100B0000809381008091800081608093800080913B
:100B1000B10084608093B1008091B00081608093C7
:100B2000B00080917A00846080937A0080917A008E
:100B3000826080937A0080917A00816080937A004D
:100B400080917A00806880937A001092C100E091D1
:100B50005901F0915A0182E08083E0915501F091B2
:100B600056011082E0915701F09158018FEC80837B
:100B700010926101E0915D01F0915E0186E0808359
:100B8000E0915B01F0915C01808180618083E09164
:100B90005B01F0915C01808188608083E0915B0162
:100BA000F0915C01808180688083E0915B01F0912D
:100BB0005C0180818F7D808361E08DE00E94E50192
:100BC00060E08CE00E94E50161E08BE00E94E501BD
:100BD00061E08AE00E94E50161E089E00E94E501B0
:100BE00061E088E00E94E50182E00E940D03E1E0FF
:100BF0008091F9018111E0E0E195F0E0EA51FE4FCA
:100C0000848980680E9407036EE171E086EE91E0BE
:100C10000E94B90360ED77E080E090E00E943B0223
:100C200081E00E9407038BE39FE10197F1F74AE01F
:100C3000842E912CA12CB12C50E0252E50E0352E85
:100C400060E08DE00E94990183E090E00197F1F768
:100C500061E08DE00E94990183E290E00197F1F755
:100C600060E08DE00E949901EAEBF0E06491E6EA31
:100C7000F0E08491E82FF0E0EE0FFF1FE057FF4F08
:100C80008591949100E412E42FE030E0462F0E9419
:100C9000CB04611571058105910529F06F5F7F4FC8
:100CA0008F4F9F4F9F7095958795779567950E9479
:100CB00012082DEC3CEC48EE51E40E9468070E94BB
:100CC000DA072B013C0114141504160417040CF068
:100CD0007EC00E9412082AE939E947E452E40E94E2
:100CE000630718160CF473C061E08BE00E94990151
:100CF00061E088E00E94990162E370E080E090E0AA
:100D00000E943B0260E088E00E949901F2E34F16E6
:100D10005104610471040CF45DC0C301B2010E946E
:100D200012082DEC3CEC47EC52E40E9463071816C5
:100D30000CF450C061E08AE00E94990161E088E013
:100D40000E94990164E670E080E090E00E943B021E
:100D500060E088E00E94990173016201D301C20141
:100D600084569109A109B109C397A105B105A8F558
:100D700061E089E00E94990161E088E00E949901A8
:100D800066E970E080E090E00E943B0260E088E06D
:100D90000E94990119A2A30192018E010F5D1F4FBC
:100DA000CA01B901A50194010E94C208605DF80161
:100DB00062938F01211531054105510589F730975F
:100DC000C1F0BF0189E491E00E94B90312C060E064
:100DD0008BE09ACF60E08AE0BDCF60E089E00E94BE
:100DE000990177FED7CFB301A20189E491E00E9477
:100DF000C8036BE271E089E491E00E94B9036FE2FD
:100E000071E089E491E00E94B903E1E08091F90189
:100E10008111E0E0E195F0E0EA51FE4F84898068BD
:100E20000E94070362E371E086EE91E00E94B9033D
:100E3000E091F901E23040F5E150F0E0EA51FE4F77
:100E4000848980680E94070377FE20C0B301A20155
:100E500086EE91E00E94C8036BE271E086EE91E0BD
:100E60000E94B90364EF71E080E090E00E943B02D1
:100E70002114310409F4E4CE0E94F600882309F419
:100E8000DFCE0E940000DCCEE1E0D7CF19A28E01B8
:100E90000F5D1F4FC701B601A50194010E94C20852
:100EA00069017A01605DF80162938F01C114D10478
:100EB000E104F10479F7309779F2BF0186EE91E011
:100EC0000E94B903C9CF0E944D0808F481E008953B
:100ED0000E947C070C9488080E94810858F00E94A8
:100EE0007A0840F029F45F3F29F00C947108511101
:100EF0000C94BC080C9477080E94990868F3992315
:100F0000B1F3552391F3951B550BBB27AA27621705
:100F10007307840738F09F5F5F4F220F331F441F12
:100F2000AA1FA9F335D00E2E3AF0E0E832D0915046
:100F30005040E695001CCAF72BD0FE2F29D0660F33
:100F4000771F881FBB1F261737074807AB07B0E876
:100F500009F0BB0B802DBF01FF2793585F4F3AF07C
:100F60009E3F510578F00C9471080C94BC085F3FCB
:100F7000E4F3983ED4F3869577956795B795F79502
:100F80009F5FC9F7880F911D9695879597F90895EA
:100F9000E1E0660F771F881FBB1F62177307840786
:100FA000BA0720F0621B730B840BBA0BEE1F88F795
:100FB000E09508950E94E1076894B1110C94BC0873
:100FC00008950E94A10888F09F5798F0B92F99279B
:100FD000B751B0F0E1F0660F771F881F991F1AF024
:100FE000BA95C9F714C0B13091F00E94BB08B1E0C6
:100FF00008950C94BB08672F782F8827B85F39F0C5
:10100000B93FCCF3869577956795B395D9F73EF4BC
:1010100090958095709561957F4F8F4F9F4F089564
:10102000E89409C097FB3EF4909580957095619582
:101030007F4F8F4F9F4F9923A9F0F92F96E9BB2738
:101040009395F695879577956795B795F111F8CFB4
:10105000FAF4BB0F11F460FF1BC06F5F7F4F8F4F1F
:101060009F4F16C0882311F096E911C0772321F015
:101070009EE8872F762F05C0662371F096E8862FAD
:1010800070E060E02AF09A95660F771F881FDAF704
:10109000880F9695879597F90895990F0008550F31
:1010A000AA0BE0E8FEEF16161706E807F907C0F0EE
:1010B00012161306E407F50798F0621B730B840BF6
:1010C000950B39F40A2661F0232B242B252B21F4D0
:1010D00008950A2609F4A140A6958FEF811D811D70
:1010E000089597F99F6780E870E060E008959FEFAA
:1010F00080EC089500240A941616170618060906AF
:10110000089500240A94121613061406050608957D
:10111000092E0394000C11F4882352F0BB0F40F405
:10112000BF2B11F460FF04C06F5F7F4F8F4F9F4F45
:10113000089557FD9058440F551F59F05F3F71F0C7
:101140004795880F97FB991F61F09F3F79F087952E
:101150000895121613061406551FF2CF4695F1DFB7
:1011600008C0161617061806991FF1CF8695710547
:10117000610508940895E894BB2766277727CB017B
:1011800097F90895A1E21A2EAA1BBB1BFD010DC001
:10119000AA1FBB1FEE1FFF1FA217B307E407F50727
:1011A00020F0A21BB30BE40BF50B661F771F881F03
:1011B000991F1A9469F760957095809590959B0199
:1011C000AC01BD01CF010895EE0FFF1F0590F49112
:0811D000E02D0994F894FFCF13
:1011D800000000002C018C00B9007901EA00C80069
:1011E800DC0000000000B3038C006E026D02414C6D
:1011F80046494E574153484552450020636D000DFE
:101208000A00204A4152414B2028434D2920000022
:00000001FF
